{
  "contracts/SimpleStorageV2.sol": {
    "SimpleStorageV2": {
      "abi": [
        {
          "anonymous": false,
          "inputs": [
            {
              "indexed": false,
              "internalType": "uint256",
              "name": "newNumber",
              "type": "uint256"
            }
          ],
          "name": "update",
          "type": "event"
        },
        {
          "inputs": [],
          "name": "get",
          "outputs": [
            {
              "internalType": "uint256",
              "name": "",
              "type": "uint256"
            }
          ],
          "stateMutability": "view",
          "type": "function"
        },
        {
          "inputs": [],
          "name": "number",
          "outputs": [
            {
              "internalType": "uint256",
              "name": "",
              "type": "uint256"
            }
          ],
          "stateMutability": "view",
          "type": "function"
        },
        {
          "inputs": [],
          "name": "plus",
          "outputs": [],
          "stateMutability": "nonpayable",
          "type": "function"
        },
        {
          "inputs": [
            {
              "internalType": "uint256",
              "name": "_number",
              "type": "uint256"
            }
          ],
          "name": "set",
          "outputs": [],
          "stateMutability": "nonpayable",
          "type": "function"
        }
      ],
      "evm": {
        "bytecode": {
          "linkReferences": {},
          "object": "608060405234801561001057600080fd5b50610152806100206000396000f3fe608060405234801561001057600080fd5b506004361061004c5760003560e01c806318b0c3fd1461005157806360fe47b11461005b5780636d4ce63c146100785780638381f58a14610092575b600080fd5b61005961009a565b005b6100596004803603602081101561007157600080fd5b50356100c7565b6100806100f0565b60408051918252519081900360200190f35b6100806100f6565b600080546001019081905560408051918252516000805160206100fd8339815191529181900360200190a1565b60008190556040805182815290516000805160206100fd8339815191529181900360200190a150565b60005490565b6000548156fe82ab890a4924aa641094939d7f06fdb5d410dc84a4205ffbb6c20dfc50e7f984a26469706673582212200073e031d3a5d23d4db96d86e880c325d525c6f84c6d1986aacb9ad2d2c973d964736f6c63430007030033",
          "opcodes": "PUSH1 0x80 PUSH1 0x40 MSTORE CALLVALUE DUP1 ISZERO PUSH2 0x10 JUMPI PUSH1 0x0 DUP1 REVERT JUMPDEST POP PUSH2 0x152 DUP1 PUSH2 0x20 PUSH1 0x0 CODECOPY PUSH1 0x0 RETURN INVALID PUSH1 0x80 PUSH1 0x40 MSTORE CALLVALUE DUP1 ISZERO PUSH2 0x10 JUMPI PUSH1 0x0 DUP1 REVERT JUMPDEST POP PUSH1 0x4 CALLDATASIZE LT PUSH2 0x4C JUMPI PUSH1 0x0 CALLDATALOAD PUSH1 0xE0 SHR DUP1 PUSH4 0x18B0C3FD EQ PUSH2 0x51 JUMPI DUP1 PUSH4 0x60FE47B1 EQ PUSH2 0x5B JUMPI DUP1 PUSH4 0x6D4CE63C EQ PUSH2 0x78 JUMPI DUP1 PUSH4 0x8381F58A EQ PUSH2 0x92 JUMPI JUMPDEST PUSH1 0x0 DUP1 REVERT JUMPDEST PUSH2 0x59 PUSH2 0x9A JUMP JUMPDEST STOP JUMPDEST PUSH2 0x59 PUSH1 0x4 DUP1 CALLDATASIZE SUB PUSH1 0x20 DUP2 LT ISZERO PUSH2 0x71 JUMPI PUSH1 0x0 DUP1 REVERT JUMPDEST POP CALLDATALOAD PUSH2 0xC7 JUMP JUMPDEST PUSH2 0x80 PUSH2 0xF0 JUMP JUMPDEST PUSH1 0x40 DUP1 MLOAD SWAP2 DUP3 MSTORE MLOAD SWAP1 DUP2 SWAP1 SUB PUSH1 0x20 ADD SWAP1 RETURN JUMPDEST PUSH2 0x80 PUSH2 0xF6 JUMP JUMPDEST PUSH1 0x0 DUP1 SLOAD PUSH1 0x1 ADD SWAP1 DUP2 SWAP1 SSTORE PUSH1 0x40 DUP1 MLOAD SWAP2 DUP3 MSTORE MLOAD PUSH1 0x0 DUP1 MLOAD PUSH1 0x20 PUSH2 0xFD DUP4 CODECOPY DUP2 MLOAD SWAP2 MSTORE SWAP2 DUP2 SWAP1 SUB PUSH1 0x20 ADD SWAP1 LOG1 JUMP JUMPDEST PUSH1 0x0 DUP2 SWAP1 SSTORE PUSH1 0x40 DUP1 MLOAD DUP3 DUP2 MSTORE SWAP1 MLOAD PUSH1 0x0 DUP1 MLOAD PUSH1 0x20 PUSH2 0xFD DUP4 CODECOPY DUP2 MLOAD SWAP2 MSTORE SWAP2 DUP2 SWAP1 SUB PUSH1 0x20 ADD SWAP1 LOG1 POP JUMP JUMPDEST PUSH1 0x0 SLOAD SWAP1 JUMP JUMPDEST PUSH1 0x0 SLOAD DUP2 JUMP INVALID DUP3 0xAB DUP10 EXP 0x49 0x24 0xAA PUSH5 0x1094939D7F MOD REVERT 0xB5 0xD4 LT 0xDC DUP5 LOG4 KECCAK256 0x5F 0xFB 0xB6 0xC2 0xD 0xFC POP 0xE7 0xF9 DUP5 LOG2 PUSH5 0x6970667358 0x22 SLT KECCAK256 STOP PUSH20 0xE031D3A5D23D4DB96D86E880C325D525C6F84C6D NOT DUP7 0xAA 0xCB SWAP11 0xD2 0xD2 0xC9 PUSH20 0xD964736F6C634300070300330000000000000000 "
        },
        "methodIdentifiers": {
          "get()": "6d4ce63c",
          "number()": "8381f58a",
          "plus()": "18b0c3fd",
          "set(uint256)": "60fe47b1"
        }
      }
    }
  }
}